{
  "contractName": "Petition",
  "abi": [
    {
      "inputs": [],
      "stateMutability": "nonpayable",
      "type": "constructor"
    },
    {
      "inputs": [],
      "name": "applyJury",
      "outputs": [],
      "stateMutability": "nonpayable",
      "type": "function"
    },
    {
      "inputs": [
        {
          "internalType": "uint256",
          "name": "_id",
          "type": "uint256"
        },
        {
          "internalType": "string",
          "name": "_blocked_reason",
          "type": "string"
        }
      ],
      "name": "blockingContent",
      "outputs": [],
      "stateMutability": "nonpayable",
      "type": "function"
    },
    {
      "inputs": [
        {
          "internalType": "uint256",
          "name": "_id",
          "type": "uint256"
        }
      ],
      "name": "vote",
      "outputs": [],
      "stateMutability": "nonpayable",
      "type": "function"
    },
    {
      "inputs": [
        {
          "internalType": "string",
          "name": "title",
          "type": "string"
        },
        {
          "internalType": "string",
          "name": "content",
          "type": "string"
        },
        {
          "internalType": "string[]",
          "name": "tags",
          "type": "string[]"
        }
      ],
      "name": "write",
      "outputs": [],
      "stateMutability": "nonpayable",
      "type": "function"
    },
    {
      "inputs": [
        {
          "internalType": "bool",
          "name": "mode",
          "type": "bool"
        }
      ],
      "name": "debugmodectl",
      "outputs": [],
      "stateMutability": "nonpayable",
      "type": "function"
    },
    {
      "inputs": [
        {
          "internalType": "uint256",
          "name": "_id",
          "type": "uint256"
        }
      ],
      "name": "viewContent",
      "outputs": [
        {
          "components": [
            {
              "internalType": "string",
              "name": "title",
              "type": "string"
            },
            {
              "internalType": "string",
              "name": "content",
              "type": "string"
            },
            {
              "internalType": "string[]",
              "name": "tags",
              "type": "string[]"
            },
            {
              "internalType": "uint256",
              "name": "vote",
              "type": "uint256"
            },
            {
              "internalType": "uint256",
              "name": "start_time",
              "type": "uint256"
            },
            {
              "internalType": "string",
              "name": "reply_url",
              "type": "string"
            },
            {
              "internalType": "bool",
              "name": "is_replied",
              "type": "bool"
            },
            {
              "internalType": "string",
              "name": "category",
              "type": "string"
            },
            {
              "internalType": "bool",
              "name": "is_block",
              "type": "bool"
            },
            {
              "internalType": "string",
              "name": "blocked_reason",
              "type": "string"
            }
          ],
          "internalType": "struct Petition.Content",
          "name": "",
          "type": "tuple"
        }
      ],
      "stateMutability": "view",
      "type": "function"
    },
    {
      "inputs": [
        {
          "internalType": "bool",
          "name": "_is_all",
          "type": "bool"
        },
        {
          "internalType": "bool",
          "name": "_is_replied",
          "type": "bool"
        },
        {
          "internalType": "bool",
          "name": "_is_public",
          "type": "bool"
        },
        {
          "internalType": "bool",
          "name": "_is_block",
          "type": "bool"
        }
      ],
      "name": "getContentsList",
      "outputs": [
        {
          "components": [
            {
              "internalType": "string",
              "name": "title",
              "type": "string"
            },
            {
              "internalType": "string",
              "name": "content",
              "type": "string"
            },
            {
              "internalType": "string[]",
              "name": "tags",
              "type": "string[]"
            },
            {
              "internalType": "uint256",
              "name": "vote",
              "type": "uint256"
            },
            {
              "internalType": "uint256",
              "name": "start_time",
              "type": "uint256"
            },
            {
              "internalType": "string",
              "name": "reply_url",
              "type": "string"
            },
            {
              "internalType": "bool",
              "name": "is_replied",
              "type": "bool"
            },
            {
              "internalType": "string",
              "name": "category",
              "type": "string"
            },
            {
              "internalType": "bool",
              "name": "is_block",
              "type": "bool"
            },
            {
              "internalType": "string",
              "name": "blocked_reason",
              "type": "string"
            }
          ],
          "internalType": "struct Petition.Content[]",
          "name": "",
          "type": "tuple[]"
        }
      ],
      "stateMutability": "nonpayable",
      "type": "function"
    },
    {
      "inputs": [],
      "name": "getLastIndex",
      "outputs": [
        {
          "internalType": "uint256",
          "name": "",
          "type": "uint256"
        }
      ],
      "stateMutability": "view",
      "type": "function"
    },
    {
      "inputs": [
        {
          "internalType": "uint256",
          "name": "_id",
          "type": "uint256"
        },
        {
          "internalType": "string",
          "name": "url",
          "type": "string"
        }
      ],
      "name": "reply",
      "outputs": [],
      "stateMutability": "nonpayable",
      "type": "function"
    },
    {
      "inputs": [
        {
          "internalType": "address",
          "name": "jury",
          "type": "address"
        },
        {
          "internalType": "bool",
          "name": "isLike",
          "type": "bool"
        }
      ],
      "name": "evaluateJury",
      "outputs": [],
      "stateMutability": "nonpayable",
      "type": "function"
    },
    {
      "inputs": [],
      "name": "getJuryList",
      "outputs": [
        {
          "components": [
            {
              "internalType": "uint256[]",
              "name": "blocking_list",
              "type": "uint256[]"
            },
            {
              "internalType": "uint256",
              "name": "dislike",
              "type": "uint256"
            },
            {
              "internalType": "uint256",
              "name": "like",
              "type": "uint256"
            }
          ],
          "internalType": "struct Petition.JuryPanel[]",
          "name": "",
          "type": "tuple[]"
        }
      ],
      "stateMutability": "view",
      "type": "function"
    }
  ],
  "bytecode": "0x608060405234801561001057600080fd5b50336000806101000a81548173ffffffffffffffffffffffffffffffffffffffff021916908373ffffffffffffffffffffffffffffffffffffffff1602179055506001600860006101000a81548160ff021916908315150217905550600060028190555060006001819055506133948061008b6000396000f3fe608060405234801561001057600080fd5b50600436106100a95760003560e01c80638be3e06f116100715780638be3e06f1461013e5780639657785e1461016e57806396d85aca1461019e5780639aee1bcf146101ba578063d94c783a146101c4578063e8f54781146101e0576100a9565b80630121b93f146100ae5780633e1a9300146100ca5780633fdebb59146100e857806349ca1fe91461010457806387a5937b14610122575b600080fd5b6100c860048036038101906100c39190612739565b6101fc565b005b6100d2610322565b6040516100df91906130b3565b60405180910390f35b61010260048036038101906100fd9190612616565b61032e565b005b61010c61034b565b6040516101199190612f6f565b60405180910390f35b61013c60048036038101906101379190612762565b61064a565b005b61015860048036038101906101539190612739565b610869565b6040516101659190613091565b60405180910390f35b6101886004803603810190610183919061263f565b610d38565b6040516101959190612f4d565b60405180910390f35b6101b860048036038101906101b391906125da565b611b2a565b005b6101c2611f21565b005b6101de60048036038101906101d99190612762565b61205c565b005b6101fa60048036038101906101f591906126a2565b61215d565b005b806000610208336122b9565b8051906020012090506000826040516020016102249190612f32565b60405160208183030381529060405280519060200120905060008183186040516020016102519190612f17565b6040516020818303038152906040528051906020012090506003600082815260200190815260200160002060009054906101000a900460ff16156102ca576040517f08c379a00000000000000000000000000000000000000000000000000000000081526004016102c190613031565b60405180910390fd5b60016003600083815260200190815260200160002060006101000a81548160ff021916908315150217905550600160056000878152602001908152602001600020600301600082825401925050819055505050505050565b60006001805403905090565b80600860006101000a81548160ff02191690831515021790555050565b60608060025467ffffffffffffffff8111801561036757600080fd5b506040519080825280602002602001820160405280156103a157816020015b61038e61239d565b8152602001906001900390816103865790505b50905060005b60078054905081101561064257600073ffffffffffffffffffffffffffffffffffffffff16600782815481106103d957fe5b9060005260206000200160009054906101000a900473ffffffffffffffffffffffffffffffffffffffff1673ffffffffffffffffffffffffffffffffffffffff1614610635576001600660006007848154811061043257fe5b9060005260206000200160009054906101000a900473ffffffffffffffffffffffffffffffffffffffff1673ffffffffffffffffffffffffffffffffffffffff1673ffffffffffffffffffffffffffffffffffffffff16815260200190815260200160002060010154038282815181106104a857fe5b60200260200101516020018181525050600160066000600784815481106104cb57fe5b9060005260206000200160009054906101000a900473ffffffffffffffffffffffffffffffffffffffff1673ffffffffffffffffffffffffffffffffffffffff1673ffffffffffffffffffffffffffffffffffffffff168152602001908152602001600020600201540382828151811061054157fe5b60200260200101516040018181525050600660006007838154811061056257fe5b9060005260206000200160009054906101000a900473ffffffffffffffffffffffffffffffffffffffff1673ffffffffffffffffffffffffffffffffffffffff1673ffffffffffffffffffffffffffffffffffffffff16815260200190815260200160002060000180548060200260200160405190810160405280929190818152602001828054801561061457602002820191906000526020600020905b815481526020019060010190808311610600575b505050505082828151811061062557fe5b6020026020010151600001819052505b80806001019150506103a7565b508091505090565b6000600660003373ffffffffffffffffffffffffffffffffffffffff1673ffffffffffffffffffffffffffffffffffffffff168152602001908152602001600020600201541480156106de57506000600660003373ffffffffffffffffffffffffffffffffffffffff1673ffffffffffffffffffffffffffffffffffffffff16815260200190815260200160002060010154145b61071d576040517f08c379a000000000000000000000000000000000000000000000000000000000815260040161071490612f91565b60405180910390fd5b6065600660003373ffffffffffffffffffffffffffffffffffffffff1673ffffffffffffffffffffffffffffffffffffffff16815260200190815260200160002060010154116107a2576040517f08c379a000000000000000000000000000000000000000000000000000000000815260040161079990612fb1565b60405180910390fd5b60016005600084815260200190815260200160002060080160006101000a81548160ff021916908315150217905550806005600084815260200190815260200160002060090190805190602001906107fb9291906123be565b50600660003373ffffffffffffffffffffffffffffffffffffffff1673ffffffffffffffffffffffffffffffffffffffff1681526020019081526020016000206000018290806001815401808255809150506001900390600052602060002001600090919091909150555050565b61087161243e565b60015482106108b5576040517f08c379a00000000000000000000000000000000000000000000000000000000081526004016108ac90612ff1565b60405180910390fd5b6005600083815260200190815260200160002060405180610140016040529081600082018054600181600116156101000203166002900480601f01602080910402602001604051908101604052809291908181526020018280546001816001161561010002031660029004801561096d5780601f106109425761010080835404028352916020019161096d565b820191906000526020600020905b81548152906001019060200180831161095057829003601f168201915b50505050508152602001600182018054600181600116156101000203166002900480601f016020809104026020016040519081016040528092919081815260200182805460018160011615610100020316600290048015610a0f5780601f106109e457610100808354040283529160200191610a0f565b820191906000526020600020905b8154815290600101906020018083116109f257829003601f168201915b5050505050815260200160028201805480602002602001604051908101604052809291908181526020016000905b82821015610af9578382906000526020600020018054600181600116156101000203166002900480601f016020809104026020016040519081016040528092919081815260200182805460018160011615610100020316600290048015610ae55780601f10610aba57610100808354040283529160200191610ae5565b820191906000526020600020905b815481529060010190602001808311610ac857829003601f168201915b505050505081526020019060010190610a3d565b5050505081526020016003820154815260200160048201548152602001600582018054600181600116156101000203166002900480601f016020809104026020016040519081016040528092919081815260200182805460018160011615610100020316600290048015610bae5780601f10610b8357610100808354040283529160200191610bae565b820191906000526020600020905b815481529060010190602001808311610b9157829003601f168201915b505050505081526020016006820160009054906101000a900460ff16151515158152602001600782018054600181600116156101000203166002900480601f016020809104026020016040519081016040528092919081815260200182805460018160011615610100020316600290048015610c6b5780601f10610c4057610100808354040283529160200191610c6b565b820191906000526020600020905b815481529060010190602001808311610c4e57829003601f168201915b505050505081526020016008820160009054906101000a900460ff16151515158152602001600982018054600181600116156101000203166002900480601f016020809104026020016040519081016040528092919081815260200182805460018160011615610100020316600290048015610d285780601f10610cfd57610100808354040283529160200191610d28565b820191906000526020600020905b815481529060010190602001808311610d0b57829003601f168201915b5050505050815250509050919050565b606084156113b357606060015467ffffffffffffffff81118015610d5b57600080fd5b50604051908082528060200260200182016040528015610d9557816020015b610d8261243e565b815260200190600190039081610d7a5790505b50905060005b6001548110156113a957600560008281526020019081526020016000206000018054600181600116156101000203166002900480601f016020809104026020016040519081016040528092919081815260200182805460018160011615610100020316600290048015610e4f5780601f10610e2457610100808354040283529160200191610e4f565b820191906000526020600020905b815481529060010190602001808311610e3257829003601f168201915b5050505050828281518110610e6057fe5b602002602001015160000181905250600560008281526020019081526020016000206001018054600181600116156101000203166002900480601f016020809104026020016040519081016040528092919081815260200182805460018160011615610100020316600290048015610f195780601f10610eee57610100808354040283529160200191610f19565b820191906000526020600020905b815481529060010190602001808311610efc57829003601f168201915b5050505050828281518110610f2a57fe5b6020026020010151602001819052506005600082815260200190815260200160002060030154828281518110610f5c57fe5b6020026020010151606001818152505060056000828152602001908152602001600020600201805480602002602001604051908101604052809291908181526020016000905b8282101561105e578382906000526020600020018054600181600116156101000203166002900480601f01602080910402602001604051908101604052809291908181526020018280546001816001161561010002031660029004801561104a5780601f1061101f5761010080835404028352916020019161104a565b820191906000526020600020905b81548152906001019060200180831161102d57829003601f168201915b505050505081526020019060010190610fa2565b5050505082828151811061106e57fe5b60200260200101516040018190525060056000828152602001908152602001600020600401548282815181106110a057fe5b60200260200101516080018181525050600560008281526020019081526020016000206005018054600181600116156101000203166002900480601f01602080910402602001604051908101604052809291908181526020018280546001816001161561010002031660029004801561115a5780601f1061112f5761010080835404028352916020019161115a565b820191906000526020600020905b81548152906001019060200180831161113d57829003601f168201915b505050505082828151811061116b57fe5b602002602001015160a001819052506005600082815260200190815260200160002060060160009054906101000a900460ff168282815181106111aa57fe5b602002602001015160c0019015159081151581525050600560008281526020019081526020016000206007018054600181600116156101000203166002900480601f01602080910402602001604051908101604052809291908181526020018280546001816001161561010002031660029004801561126a5780601f1061123f5761010080835404028352916020019161126a565b820191906000526020600020905b81548152906001019060200180831161124d57829003601f168201915b505050505082828151811061127b57fe5b602002602001015160e001819052506005600082815260200190815260200160002060080160009054906101000a900460ff168282815181106112ba57fe5b6020026020010151610100019015159081151581525050600560008281526020019081526020016000206009018054600181600116156101000203166002900480601f01602080910402602001604051908101604052809291908181526020018280546001816001161561010002031660029004801561137b5780601f106113505761010080835404028352916020019161137b565b820191906000526020600020905b81548152906001019060200180831161135e57829003601f168201915b505050505082828151811061138c57fe5b602002602001015161012001819052508080600101915050610d9b565b5080915050611b22565b60005b600154811015611480578415156005600083815260200190815260200160002060060160009054906101000a900460ff161515148015611412575083151560646005600084815260200190815260200160002060030154111515145b801561144457508215156005600083815260200190815260200160002060080160009054906101000a900460ff161515145b156114735760098190806001815401808255809150506001900390600052602060002001600090919091909150555b80806001019150506113b6565b506000600980549050905060608167ffffffffffffffff811180156114a457600080fd5b506040519080825280602002602001820160405280156114de57816020015b6114cb61243e565b8152602001906001900390816114c35790505b50905060005b82811015611b0d576000600982815481106114fb57fe5b90600052602060002001549050600560008281526020019081526020016000206000018054600181600116156101000203166002900480601f0160208091040260200160405190810160405280929190818152602001828054600181600116156101000203166002900480156115b25780601f10611587576101008083540402835291602001916115b2565b820191906000526020600020905b81548152906001019060200180831161159557829003601f168201915b50505050508383815181106115c357fe5b602002602001015160000181905250600560008281526020019081526020016000206001018054600181600116156101000203166002900480601f01602080910402602001604051908101604052809291908181526020018280546001816001161561010002031660029004801561167c5780601f106116515761010080835404028352916020019161167c565b820191906000526020600020905b81548152906001019060200180831161165f57829003601f168201915b505050505083838151811061168d57fe5b60200260200101516020018190525060056000828152602001908152602001600020600301548383815181106116bf57fe5b6020026020010151606001818152505060056000828152602001908152602001600020600201805480602002602001604051908101604052809291908181526020016000905b828210156117c1578382906000526020600020018054600181600116156101000203166002900480601f0160208091040260200160405190810160405280929190818152602001828054600181600116156101000203166002900480156117ad5780601f10611782576101008083540402835291602001916117ad565b820191906000526020600020905b81548152906001019060200180831161179057829003601f168201915b505050505081526020019060010190611705565b505050508383815181106117d157fe5b602002602001015160400181905250600560008281526020019081526020016000206004015483838151811061180357fe5b60200260200101516080018181525050600560008281526020019081526020016000206005018054600181600116156101000203166002900480601f0160208091040260200160405190810160405280929190818152602001828054600181600116156101000203166002900480156118bd5780601f10611892576101008083540402835291602001916118bd565b820191906000526020600020905b8154815290600101906020018083116118a057829003601f168201915b50505050508383815181106118ce57fe5b602002602001015160a001819052506005600082815260200190815260200160002060060160009054906101000a900460ff1683838151811061190d57fe5b602002602001015160c0019015159081151581525050600560008281526020019081526020016000206007018054600181600116156101000203166002900480601f0160208091040260200160405190810160405280929190818152602001828054600181600116156101000203166002900480156119cd5780601f106119a2576101008083540402835291602001916119cd565b820191906000526020600020905b8154815290600101906020018083116119b057829003601f168201915b50505050508383815181106119de57fe5b602002602001015160e001819052506005600082815260200190815260200160002060080160009054906101000a900460ff16838381518110611a1d57fe5b6020026020010151610100019015159081151581525050600560008281526020019081526020016000206009018054600181600116156101000203166002900480601f016020809104026020016040519081016040528092919081815260200182805460018160011615610100020316600290048015611ade5780601f10611ab357610100808354040283529160200191611ade565b820191906000526020600020905b815481529060010190602001808311611ac157829003601f168201915b5050505050838381518110611aef57fe5b602002602001015161012001819052505080806001019150506114e4565b5060096000611b1c9190612495565b80925050505b949350505050565b816000600660008373ffffffffffffffffffffffffffffffffffffffff1673ffffffffffffffffffffffffffffffffffffffff16815260200190815260200160002060020154148015611bbf57506000600660008373ffffffffffffffffffffffffffffffffffffffff1673ffffffffffffffffffffffffffffffffffffffff16815260200190815260200160002060010154145b611bfe576040517f08c379a0000000000000000000000000000000000000000000000000000000008152600401611bf590613051565b60405180910390fd5b6000611c09336122b9565b8051906020012090506000611c1d836122b9565b8051906020012090506000828218604051602001611c3b9190612f17565b6040516020818303038152906040528051906020012090506004600082815260200190815260200160002060009054906101000a900460ff1615611cb4576040517f08c379a0000000000000000000000000000000000000000000000000000000008152600401611cab90612fd1565b60405180910390fd5b60016004600083815260200190815260200160002060006101000a81548160ff0219169083151502179055508415611d3d57600660008773ffffffffffffffffffffffffffffffffffffffff1673ffffffffffffffffffffffffffffffffffffffff16815260200190815260200160002060020160008154809291906001019190505550611f19565b600660008773ffffffffffffffffffffffffffffffffffffffff1673ffffffffffffffffffffffffffffffffffffffff168152602001908152602001600020600101600081548092919060010191905055506065600660008873ffffffffffffffffffffffffffffffffffffffff1673ffffffffffffffffffffffffffffffffffffffff168152602001908152602001600020600101541115611f1857600660008773ffffffffffffffffffffffffffffffffffffffff1673ffffffffffffffffffffffffffffffffffffffff16815260200190815260200160002060008082016000611e2a9190612495565b6001820160009055600282016000905550506002600081548092919060019003919050555060005b600780549050811015611f16578673ffffffffffffffffffffffffffffffffffffffff1660078281548110611e8357fe5b9060005260206000200160009054906101000a900473ffffffffffffffffffffffffffffffffffffffff1673ffffffffffffffffffffffffffffffffffffffff161415611f095760078181548110611ed757fe5b9060005260206000200160006101000a81549073ffffffffffffffffffffffffffffffffffffffff0219169055611f16565b8080600101915050611e52565b505b5b505050505050565b60646002541115611f67576040517f08c379a0000000000000000000000000000000000000000000000000000000008152600401611f5e90613011565b60405180910390fd5b6001600660003373ffffffffffffffffffffffffffffffffffffffff1673ffffffffffffffffffffffffffffffffffffffff168152602001908152602001600020600101819055506001600660003373ffffffffffffffffffffffffffffffffffffffff1673ffffffffffffffffffffffffffffffffffffffff168152602001908152602001600020600201819055506007339080600181540180825580915050600190039060005260206000200160009091909190916101000a81548173ffffffffffffffffffffffffffffffffffffffff021916908373ffffffffffffffffffffffffffffffffffffffff160217905550565b600860009054906101000a900460ff166120ff5760008054906101000a900473ffffffffffffffffffffffffffffffffffffffff1673ffffffffffffffffffffffffffffffffffffffff163373ffffffffffffffffffffffffffffffffffffffff16146120fe576040517f08c379a00000000000000000000000000000000000000000000000000000000081526004016120f590613071565b60405180910390fd5b5b806005600084815260200190815260200160002060050190805190602001906121299291906123be565b5060016005600084815260200190815260200160002060060160006101000a81548160ff0219169083151502179055505050565b8260056000600154815260200190815260200160002060000190805190602001906121899291906123be565b508160056000600154815260200190815260200160002060010190805190602001906121b69291906123be565b5060005b8151811015612235576005600060015481526020019081526020016000206002018282815181106121e757fe5b60200260200101519080600181540180825580915050600190039060005260206000200160009091909190915090805190602001906122279291906123be565b5080806001019150506121ba565b506000600560006001548152602001908152602001600020600301819055504260056000600154815260200190815260200160002060040181905550600060056000600154815260200190815260200160002060060160006101000a81548160ff021916908315150217905550600160008154809291906001019190505550505050565b606080601467ffffffffffffffff811180156122d457600080fd5b506040519080825280601f01601f1916602001820160405280156123075781602001600182028036833780820191505090505b50905060005b60148160ff161015612393578060130360080260ff1660020a8473ffffffffffffffffffffffffffffffffffffffff168161234457fe5b0460f81b828260ff168151811061235757fe5b60200101907effffffffffffffffffffffffffffffffffffffffffffffffffffffffffffff1916908160001a905350808060010191505061230d565b5080915050919050565b60405180606001604052806060815260200160008152602001600081525090565b828054600181600116156101000203166002900490600052602060002090601f016020900481019282601f106123ff57805160ff191683800117855561242d565b8280016001018555821561242d579182015b8281111561242c578251825591602001919060010190612411565b5b50905061243a91906124b6565b5090565b60405180610140016040528060608152602001606081526020016060815260200160008152602001600081526020016060815260200160001515815260200160608152602001600015158152602001606081525090565b50805460008255906000526020600020908101906124b391906124b6565b50565b5b808211156124cf5760008160009055506001016124b7565b5090565b6000813590506124e281613319565b92915050565b600082601f8301126124f957600080fd5b813561250c612507826130fb565b6130ce565b9150818183526020840193506020810190508360005b8381101561255257813586016125388882612571565b845260208401935060208301925050600181019050612522565b5050505092915050565b60008135905061256b81613330565b92915050565b600082601f83011261258257600080fd5b813561259561259082613123565b6130ce565b915080825260208301602083018583830111156125b157600080fd5b6125bc8382846132b2565b50505092915050565b6000813590506125d481613347565b92915050565b600080604083850312156125ed57600080fd5b60006125fb858286016124d3565b925050602061260c8582860161255c565b9150509250929050565b60006020828403121561262857600080fd5b60006126368482850161255c565b91505092915050565b6000806000806080858703121561265557600080fd5b60006126638782880161255c565b94505060206126748782880161255c565b93505060406126858782880161255c565b92505060606126968782880161255c565b91505092959194509250565b6000806000606084860312156126b757600080fd5b600084013567ffffffffffffffff8111156126d157600080fd5b6126dd86828701612571565b935050602084013567ffffffffffffffff8111156126fa57600080fd5b61270686828701612571565b925050604084013567ffffffffffffffff81111561272357600080fd5b61272f868287016124e8565b9150509250925092565b60006020828403121561274b57600080fd5b6000612759848285016125c5565b91505092915050565b6000806040838503121561277557600080fd5b6000612783858286016125c5565b925050602083013567ffffffffffffffff8111156127a057600080fd5b6127ac85828601612571565b9150509250929050565b60006127c283836129ed565b905092915050565b60006127d68383612c98565b905092915050565b60006127ea8383612e92565b905092915050565b60006127fe8383612ee2565b60208301905092915050565b60006128158261318f565b61281f81856131fa565b9350836020820285016128318561314f565b8060005b8581101561286d578484038952815161284e85826127b6565b9450612859836131c6565b925060208a01995050600181019050612835565b50829750879550505050505092915050565b600061288a8261319a565b612894818561320b565b9350836020820285016128a68561315f565b8060005b858110156128e257848403895281516128c385826127ca565b94506128ce836131d3565b925060208a019950506001810190506128aa565b50829750879550505050505092915050565b60006128ff826131a5565b612909818561321c565b93508360208202850161291b8561316f565b8060005b85811015612957578484038952815161293885826127de565b9450612943836131e0565b925060208a0199505060018101905061291f565b50829750879550505050505092915050565b6000612974826131b0565b61297e818561322d565b93506129898361317f565b8060005b838110156129ba5781516129a188826127f2565b97506129ac836131ed565b92505060018101905061298d565b5085935050505092915050565b6129d081613272565b82525050565b6129e76129e28261327e565b6132f4565b82525050565b60006129f8826131bb565b612a02818561323e565b9350612a128185602086016132c1565b612a1b81613308565b840191505092915050565b6000612a3360208361324f565b91507f6d73672e73656e646572206973206e6f742061206a7572792070616e6e656c2e6000830152602082019050919050565b6000612a7360268361324f565b91507f54686973206a7572792070616e656c20686173206f766572203130302064697360008301527f6c696b65732e00000000000000000000000000000000000000000000000000006020830152604082019050919050565b6000612ad9602c8361324f565b91507f54686973206a75727920697320616c7265616479206576616c7561746564206260008301527f79206d73672e73656e64657200000000000000000000000000000000000000006020830152604082019050919050565b6000612b3f600e8361324f565b91507f646f65736e27742065786973742e0000000000000000000000000000000000006000830152602082019050919050565b6000612b7f60198361324f565b91507f4e6f20766163616e637920666f72206a7572792070616e656c000000000000006000830152602082019050919050565b6000612bbf602c8361324f565b91507f54686973207065746974696f6e20697320616c726561647920766f746564206260008301527f79206d73672e73656e64657200000000000000000000000000000000000000006020830152604082019050919050565b6000612c2560188361324f565b91507f546865206a75727920646f6573206e6f742065786973742e00000000000000006000830152602082019050919050565b6000612c65601b8361324f565b91507f6d73672e73656e646572206973206e6f7420746865206f776e657200000000006000830152602082019050919050565b6000610140830160008301518482036000860152612cb682826129ed565b91505060208301518482036020860152612cd082826129ed565b91505060408301518482036040860152612cea828261280a565b9150506060830151612cff6060860182612ee2565b506080830151612d126080860182612ee2565b5060a083015184820360a0860152612d2a82826129ed565b91505060c0830151612d3f60c08601826129c7565b5060e083015184820360e0860152612d5782826129ed565b915050610100830151612d6e6101008601826129c7565b50610120830151848203610120860152612d8882826129ed565b9150508091505092915050565b6000610140830160008301518482036000860152612db382826129ed565b91505060208301518482036020860152612dcd82826129ed565b91505060408301518482036040860152612de7828261280a565b9150506060830151612dfc6060860182612ee2565b506080830151612e0f6080860182612ee2565b5060a083015184820360a0860152612e2782826129ed565b91505060c0830151612e3c60c08601826129c7565b5060e083015184820360e0860152612e5482826129ed565b915050610100830151612e6b6101008601826129c7565b50610120830151848203610120860152612e8582826129ed565b9150508091505092915050565b60006060830160008301518482036000860152612eaf8282612969565b9150506020830151612ec46020860182612ee2565b506040830151612ed76040860182612ee2565b508091505092915050565b612eeb816132a8565b82525050565b612efa816132a8565b82525050565b612f11612f0c826132a8565b6132fe565b82525050565b6000612f2382846129d6565b60208201915081905092915050565b6000612f3e8284612f00565b60208201915081905092915050565b60006020820190508181036000830152612f67818461287f565b905092915050565b60006020820190508181036000830152612f8981846128f4565b905092915050565b60006020820190508181036000830152612faa81612a26565b9050919050565b60006020820190508181036000830152612fca81612a66565b9050919050565b60006020820190508181036000830152612fea81612acc565b9050919050565b6000602082019050818103600083015261300a81612b32565b9050919050565b6000602082019050818103600083015261302a81612b72565b9050919050565b6000602082019050818103600083015261304a81612bb2565b9050919050565b6000602082019050818103600083015261306a81612c18565b9050919050565b6000602082019050818103600083015261308a81612c58565b9050919050565b600060208201905081810360008301526130ab8184612d95565b905092915050565b60006020820190506130c86000830184612ef1565b92915050565b6000604051905081810181811067ffffffffffffffff821117156130f157600080fd5b8060405250919050565b600067ffffffffffffffff82111561311257600080fd5b602082029050602081019050919050565b600067ffffffffffffffff82111561313a57600080fd5b601f19601f8301169050602081019050919050565b6000819050602082019050919050565b6000819050602082019050919050565b6000819050602082019050919050565b6000819050602082019050919050565b600081519050919050565b600081519050919050565b600081519050919050565b600081519050919050565b600081519050919050565b6000602082019050919050565b6000602082019050919050565b6000602082019050919050565b6000602082019050919050565b600082825260208201905092915050565b600082825260208201905092915050565b600082825260208201905092915050565b600082825260208201905092915050565b600082825260208201905092915050565b600082825260208201905092915050565b600061326b82613288565b9050919050565b60008115159050919050565b6000819050919050565b600073ffffffffffffffffffffffffffffffffffffffff82169050919050565b6000819050919050565b82818337600083830152505050565b60005b838110156132df5780820151818401526020810190506132c4565b838111156132ee576000848401525b50505050565b6000819050919050565b6000819050919050565b6000601f19601f8301169050919050565b61332281613260565b811461332d57600080fd5b50565b61333981613272565b811461334457600080fd5b50565b613350816132a8565b811461335b57600080fd5b5056fea2646970667358221220d5839434a8b2b6bd85191f402625c0a800c593b9cd3c701e33487407c5632d9764736f6c63430007000033",
  "immutableReferences": {},
  "source": "pragma solidity >=0.5.17 <=0.7.4;\r\npragma experimental ABIEncoderV2;\r\n\r\n// Caller\r\ncontract Petition{\r\n  //   \r\n  struct Content {\r\n    string title;\r\n    string content;\r\n    string[] tags;\r\n    uint256 vote;\r\n    uint256 start_time;\r\n    string reply_url;\r\n    bool is_replied;\r\n    string category;\r\n    bool is_block;\r\n    string blocked_reason;\r\n  }\r\n\r\n  struct JuryPanel {\r\n    uint256[] blocking_list;\r\n    uint256 dislike;\r\n    uint256 like;\r\n  }\r\n\r\n  address owner;  //  \r\n  uint256 id;  //  index\r\n  uint256 NUM_JURY;\r\n  mapping(bytes32=>bool) votecheck;  //   vote   \r\n  mapping(bytes32=>bool) juryvotecheck;\r\n  mapping(uint256=>Content) petitions;  //  \r\n  mapping(address=>JuryPanel) jury_panels;\r\n  address[] jury_address;\r\n  bool debugmode;\r\n  uint[] return_indexes;\r\n\r\n  modifier isJuryPanel() {\r\n    // emit Alert(msg.sender, functionname);\r\n    require(jury_panels[msg.sender].like == 0 && jury_panels[msg.sender].dislike == 0, \"msg.sender is not a jury pannel.\");\r\n    require(jury_panels[msg.sender].dislike > 101, \"This jury panel has over 100 dislikes.\");\r\n    _;\r\n  }\r\n\r\n  modifier voteChecker(uint256 _id) {  //     \r\n    bytes32 addrhash = keccak256(toBytes(msg.sender));\r\n    bytes32 idhash = keccak256(abi.encodePacked(_id));\r\n    bytes32 checkhash = keccak256(abi.encodePacked(addrhash ^ idhash));\r\n    require(!votecheck[checkhash], \"This petition is already voted by msg.sender\");\r\n    votecheck[checkhash] = true;\r\n    _;\r\n  }\r\n\r\n    modifier juryVoteChecker(address jury) {  //     \r\n    require(jury_panels[jury].like == 0 && jury_panels[jury].dislike == 0, \"The jury does not exist.\");\r\n    bytes32 senderhash = keccak256(toBytes(msg.sender));\r\n    bytes32 juryhash = keccak256(toBytes(jury));\r\n    bytes32 checkhash = keccak256(abi.encodePacked(juryhash ^ senderhash));\r\n    require(!juryvotecheck[checkhash], \"This jury is already evaluated by msg.sender\");\r\n    juryvotecheck[checkhash] = true;\r\n    _;\r\n  }\r\n\r\n  modifier isOwner() {  //   \r\n    if(!debugmode){\r\n      require(msg.sender == owner, \"msg.sender is not the owner\");\r\n    }\r\n    _;\r\n  }\r\n\r\n  constructor() public{\r\n    owner = msg.sender;\r\n    debugmode = true;\r\n    NUM_JURY = 0;\r\n    id = 0;\r\n  }\r\n\r\n  function applyJury() public{\r\n    require(NUM_JURY <= 100, \"No vacancy for jury panel\");\r\n    jury_panels[msg.sender].dislike = 1;\r\n    jury_panels[msg.sender].like = 1;\r\n    jury_address.push(msg.sender);\r\n  }\r\n\r\n  function blockingContent(uint256 _id, string memory _blocked_reason) public isJuryPanel() {\r\n    petitions[_id].is_block = true;\r\n    petitions[_id].blocked_reason = _blocked_reason;\r\n    jury_panels[msg.sender].blocking_list.push(_id);\r\n  }\r\n\r\n  function vote(uint256 _id) public voteChecker(_id) {  // , did& \r\n    petitions[_id].vote += 1;\r\n  }\r\n\r\n  function write(string memory title, string memory content, string[] memory tags) public {  //  \r\n    petitions[id].title = title;\r\n    petitions[id].content = content;\r\n    for (uint i = 0; i < tags.length; i++){\r\n      petitions[id].tags.push(tags[i]);\r\n    }\r\n    petitions[id].vote = 0;\r\n    petitions[id].start_time = block.timestamp;\r\n    petitions[id].is_replied = false;\r\n    id++;\r\n  }\r\n\r\n  function debugmodectl(bool mode) public{\r\n    debugmode = mode;\r\n  }\r\n\r\n  function viewContent(uint256 _id) external view returns(Content memory) {  //   \r\n    require(_id < id, \"doesn't exist.\");\r\n    return petitions[_id];\r\n  }\r\n\r\n\r\n  function getContentsList(bool _is_all, bool _is_replied, bool _is_public, bool _is_block) external returns(Content[] memory) {  //  list \r\n    //   \r\n    if (_is_all){\r\n      Content[] memory list = new Content[](id);\r\n      for(uint i = 0; i < id; i++){\r\n        list[i].title = petitions[i].title;\r\n        list[i].content = petitions[i].content;\r\n        list[i].vote = petitions[i].vote;\r\n        list[i].tags = petitions[i].tags;\r\n        list[i].start_time = petitions[i].start_time;\r\n        list[i].reply_url = petitions[i].reply_url;\r\n        list[i].is_replied = petitions[i].is_replied;\r\n        list[i].category = petitions[i].category;\r\n        list[i].is_block = petitions[i].is_block;\r\n        list[i].blocked_reason = petitions[i].blocked_reason;\r\n      }\r\n      return list;\r\n    }\r\n    else{\r\n      for(uint i = 0; i < id; i++){\r\n        if (petitions[i].is_replied == _is_replied && (petitions[i].vote > 100) == _is_public && petitions[i].is_block == _is_block)\r\n          return_indexes.push(i);\r\n    }\r\n    //     array \r\n    uint length = return_indexes.length;\r\n    Content[] memory list = new Content[](length);\r\n    for(uint i = 0; i < length; i++){\r\n      uint _index = return_indexes[i];\r\n      list[i].title = petitions[_index].title;\r\n      list[i].content = petitions[_index].content;\r\n      list[i].vote = petitions[_index].vote;\r\n      list[i].tags = petitions[_index].tags;\r\n      list[i].start_time = petitions[_index].start_time;\r\n      list[i].reply_url = petitions[_index].reply_url;\r\n      list[i].is_replied = petitions[_index].is_replied;\r\n      list[i].category = petitions[_index].category;\r\n      list[i].is_block = petitions[_index].is_block;\r\n      list[i].blocked_reason = petitions[_index].blocked_reason;\r\n    }\r\n    delete return_indexes;\r\n    return list;\r\n    }\r\n  }\r\n\r\n  function getLastIndex() external view returns(uint256) {  //  index \r\n    return id - 1;\r\n  }\r\n\r\n  function reply(uint256 _id, string memory url) public isOwner()  {  //   url \r\n    petitions[_id].reply_url = url;\r\n    petitions[_id].is_replied = true;\r\n  }\r\n\r\n  function toBytes(address addr) private pure returns(bytes memory) {  // address type bytes type  (hashing )\r\n    bytes memory byteaddr = new bytes(20);\r\n    for (uint8 i = 0; i < 20; i++) {\r\n      byteaddr[i] = byte(uint8(uint(addr) / (2**(8*(19 - i)))));\r\n    }\r\n    return (byteaddr);\r\n  }\r\n\r\n  function evaluateJury(address jury, bool isLike) public juryVoteChecker(jury) {\r\n    if (isLike) jury_panels[jury].like++;\r\n    else {\r\n      jury_panels[jury].dislike++;\r\n      if (jury_panels[jury].dislike > 101) {\r\n        delete jury_panels[jury];\r\n        NUM_JURY--;\r\n\r\n        for (uint i = 0; i < jury_address.length; i++){\r\n          if (jury_address[i] == jury) {\r\n            delete jury_address[i];\r\n            break;\r\n          }\r\n        }\r\n      }\r\n    }\r\n  }\r\n\r\n  function getJuryList() external view returns(JuryPanel[] memory) {  //  list \r\n    JuryPanel[] memory list = new JuryPanel[](NUM_JURY);\r\n    for(uint i = 0; i < jury_address.length; i++){\r\n      if(jury_address[i] != address(0x0)){\r\n        list[i].dislike = jury_panels[jury_address[i]].dislike - 1;\r\n        list[i].like = jury_panels[jury_address[i]].like - 1;\r\n        list[i].blocking_list = jury_panels[jury_address[i]].blocking_list;\r\n      }\r\n    }\r\n    return list;\r\n  }\r\n}",
  "sourcePath": "C:/Users/kjds1/Workspace/petition-contract/contracts/petition.sol",
  "compiler": {
    "name": "solc",
    "version": "0.7.0+commit.9e61f92b.Emscripten.clang"
  },
  "schemaVersion": "3.3.1",
  "updatedAt": "2020-10-21T14:00:49.407Z",
  "devdoc": {
    "kind": "dev",
    "methods": {},
    "version": 1
  },
  "userdoc": {
    "kind": "user",
    "methods": {},
    "version": 1
  }
}